{
  "fileName": "Decentralight.sol",
  "contractName": "Decentralight",
  "source": "pragma solidity ^0.6.0;\n\ncontract Decentralight {\n    bool private state;\n\n    function toggle() public {\n        state = !state;\n    }\n\n    // Reads the last stored value\n    function getState() public view returns (bool) {\n        return state;\n    }\n}",
  "sourcePath": "contracts/Decentralight.sol",
  "abi": [
    {
      "inputs": [],
      "name": "getState",
      "outputs": [
        {
          "internalType": "bool",
          "name": "",
          "type": "bool"
        }
      ],
      "stateMutability": "view",
      "type": "function"
    },
    {
      "inputs": [],
      "name": "toggle",
      "outputs": [],
      "stateMutability": "nonpayable",
      "type": "function"
    }
  ],
  "bytecode": "0x60806040523480156100115760006000fd5b50610017565b60e2806100256000396000f3fe608060405234801560105760006000fd5b506004361060365760003560e01c80631865c57d14603c57806340a3d24614605c576036565b60006000fd5b60426064565b604051808215151515815260200191505060405180910390f35b6062607f565b005b6000600060009054906101000a900460ff169050607c565b90565b600060009054906101000a900460ff1615600060006101000a81548160ff0219169083151502179055505b56fea26469706673582212205369fe67299b8df7cfb7cd8077f9af3162078b13f5d953e6416fb09d40b20b6264736f6c63430006040033",
  "compiler": {
    "name": "solc",
    "version": "0.6.4+commit.1dca32f3.Emscripten.clang",
    "optimizer": {},
    "evmVersion": "constantinople"
  }
}