{
  "fileName": "Decentralight.sol",
  "contractName": "Decentralight",
  "source": "pragma solidity ^0.5.0;\n\nimport \"@openzeppelin/contracts-ethereum-package/contracts/token/ERC20/IERC20.sol\";\nimport \"@openzeppelin/upgrades/contracts/Initializable.sol\";\nimport \"@openzeppelin/contracts-ethereum-package/contracts/token/ERC20/SafeERC20.sol\";\n\n\ncontract Decentralight is Initializable{\n    using SafeERC20 for IERC20;\n    bool private _state;\n    IERC20 private _token;\n    uint256 private _amount;\n\n    event Toggle(address indexed from, bool state);\n\n    function initialize(IERC20 token, uint256 amount) public {\n        _state = false;\n        _amount = amount;\n        _token = token;\n    }\n\n    function toggle() public {\n        _token.transferFrom(msg.sender, address(this), _amount);\n        _state = !_state;\n        emit Toggle(msg.sender, _state);\n    }\n\n    // Reads the last stored value\n    function getState() public view returns (bool) {\n        return _state;\n    }\n    function getAmount() public view returns (uint256){\n        return _amount;\n}\n\n}",
  "sourcePath": "contracts/Decentralight.sol",
  "abi": [
    {
      "anonymous": false,
      "inputs": [
        {
          "indexed": true,
          "internalType": "address",
          "name": "from",
          "type": "address"
        },
        {
          "indexed": false,
          "internalType": "bool",
          "name": "state",
          "type": "bool"
        }
      ],
      "name": "Toggle",
      "type": "event"
    },
    {
      "constant": true,
      "inputs": [],
      "name": "getAmount",
      "outputs": [
        {
          "internalType": "uint256",
          "name": "",
          "type": "uint256"
        }
      ],
      "payable": false,
      "stateMutability": "view",
      "type": "function"
    },
    {
      "constant": true,
      "inputs": [],
      "name": "getState",
      "outputs": [
        {
          "internalType": "bool",
          "name": "",
          "type": "bool"
        }
      ],
      "payable": false,
      "stateMutability": "view",
      "type": "function"
    },
    {
      "constant": false,
      "inputs": [
        {
          "internalType": "contract IERC20",
          "name": "token",
          "type": "address"
        },
        {
          "internalType": "uint256",
          "name": "amount",
          "type": "uint256"
        }
      ],
      "name": "initialize",
      "outputs": [],
      "payable": false,
      "stateMutability": "nonpayable",
      "type": "function"
    },
    {
      "constant": false,
      "inputs": [],
      "name": "toggle",
      "outputs": [],
      "payable": false,
      "stateMutability": "nonpayable",
      "type": "function"
    }
  ],
  "bytecode": "0x60806040523480156100115760006000fd5b50610017565b61036f806100266000396000f3fe60806040523480156100115760006000fd5b50600436106100515760003560e01c80631865c57d1461005757806340a3d24614610079578063cd6dc68714610083578063d321fe29146100d257610051565b60006000fd5b61005f6100f0565b604051808215151515815260200191505060405180910390f35b61008161010c565b005b6100d06004803603604081101561009a5760006000fd5b81019080803573ffffffffffffffffffffffffffffffffffffffff169060200190929190803590602001909291905050506102bb565b005b6100da610328565b6040518082815260200191505060405180910390f35b6000603360009054906101000a900460ff169050610109565b90565b603360019054906101000a900473ffffffffffffffffffffffffffffffffffffffff1673ffffffffffffffffffffffffffffffffffffffff166323b872dd33306034600050546040518463ffffffff1660e01b8152600401808473ffffffffffffffffffffffffffffffffffffffff1673ffffffffffffffffffffffffffffffffffffffff1681526020018373ffffffffffffffffffffffffffffffffffffffff1673ffffffffffffffffffffffffffffffffffffffff1681526020018281526020019350505050602060405180830381600087803b1580156101ef5760006000fd5b505af1158015610204573d600060003e3d6000fd5b505050506040513d602081101561021b5760006000fd5b810190808051906020019092919050505050603360009054906101000a900460ff1615603360006101000a81548160ff0219169083151502179055503373ffffffffffffffffffffffffffffffffffffffff167ff8fc4fe39d6ee1a3b815e1264c6092cb187ac7ae8c47e2135362a8d0b4755c6b603360009054906101000a900460ff16604051808215151515815260200191505060405180910390a25b565b6000603360006101000a81548160ff02191690831515021790555080603460005081909090555081603360016101000a81548173ffffffffffffffffffffffffffffffffffffffff021916908373ffffffffffffffffffffffffffffffffffffffff1602179055505b5050565b60006034600050549050610337565b9056fea265627a7a72315820664d9f969960120b809b061b96df6621fb11a12451480bb68aaef3c4ccbeede964736f6c63430005110032",
  "compiler": {
    "name": "solc",
    "version": "0.5.17+commit.d19bba13.Emscripten.clang",
    "optimizer": {},
    "evmVersion": "constantinople"
  }
}