{
  "fileName": "ERC20Faucet.sol",
  "contractName": "ERC20Faucet",
  "source": "pragma solidity ^0.5.0;\n\nimport \"@openzeppelin/contracts-ethereum-package/contracts/token/ERC20/IERC20.sol\";\nimport \"@openzeppelin/upgrades/contracts/Initializable.sol\";\n\ncontract ERC20Faucet is Initializable{\n    IERC20 private _token;\n\n    function initialize(IERC20 token) public {\n        _token = token;\n    }\n\n    function withdraw() public {\n        _token.transfer(msg.sender, 1);\n    }\n}",
  "sourcePath": "contracts/ERC20Faucet.sol",
  "abi": [
    {
      "constant": false,
      "inputs": [
        {
          "internalType": "contract IERC20",
          "name": "token",
          "type": "address"
        }
      ],
      "name": "initialize",
      "outputs": [],
      "payable": false,
      "stateMutability": "nonpayable",
      "type": "function"
    },
    {
      "constant": false,
      "inputs": [],
      "name": "withdraw",
      "outputs": [],
      "payable": false,
      "stateMutability": "nonpayable",
      "type": "function"
    }
  ],
  "bytecode": "0x60806040523480156100115760006000fd5b50610017565b6101f6806100266000396000f3fe60806040523480156100115760006000fd5b506004361061003b5760003560e01c80633ccfd60b14610041578063c4d66de81461004b5761003b565b60006000fd5b610049610090565b005b61008e600480360360208110156100625760006000fd5b81019080803573ffffffffffffffffffffffffffffffffffffffff16906020019092919050505061017c565b005b603360009054906101000a900473ffffffffffffffffffffffffffffffffffffffff1673ffffffffffffffffffffffffffffffffffffffff1663a9059cbb3360016040518363ffffffff1660e01b8152600401808373ffffffffffffffffffffffffffffffffffffffff1673ffffffffffffffffffffffffffffffffffffffff16815260200182815260200192505050602060405180830381600087803b15801561013b5760006000fd5b505af1158015610150573d600060003e3d6000fd5b505050506040513d60208110156101675760006000fd5b8101908080519060200190929190505050505b565b80603360006101000a81548173ffffffffffffffffffffffffffffffffffffffff021916908373ffffffffffffffffffffffffffffffffffffffff1602179055505b5056fea265627a7a72315820351820d0739a496ecaea0c8c0a43ea0ed33418991372768b6fa0fe6da2f68e6d64736f6c63430005110032",
  "compiler": {
    "name": "solc",
    "version": "0.5.17+commit.d19bba13.Emscripten.clang",
    "optimizer": {},
    "evmVersion": "constantinople"
  }
}